:0400000063EF00F0BA
:100018004180D8CF05F0E8CF06F0E0CF07F0FACF5F
:1000280008F0FBCF09F0E9CF0AF0EACF0BF0E1CFF7
:100038000CF0E2CF0DF0D9CF0EF0DACF0FF0F3CFFE
:1000480010F0F4CF11F0F6CF12F0F7CF13F0F8CF8D
:1000580014F0F5CF15F0F2A40ED080B003D0046AE6
:10006800042A01D0046A80500418FE0B0418806E1C
:100078004CEC03F0F29415C0F5FF14C0F8FF13C060
:10008800F7FF12C0F6FF11C0F4FF10C0F3FF0FC056
:10009800DAFF0EC0D9FF0DC0E2FF0CC0E1FF0BC0B4
:1000A800EAFF0AC0E9FF09C0FBFF08C0FAFF07C062
:1000B800E0FF06C0E8FF05C0D8FF419010005DEFE3
:1000C80003F002D00A0E185E0A0E1860FBD75AD049
:1000D80020EE05F01650D9261750DA223F0EDF6EB3
:1000E800120020EE05F01650D9261750DA22060E17
:1000F800DF6E120020EE05F01650D9261750DA22CE
:100108005B0EDF6E120020EE05F01650D926175050
:10011800DA224F0EDF6E120020EE05F01650D926B7
:100128001750DA22660EDF6E120020EE05F0165028
:10013800D9261750DA226D0EDF6E120020EE05F078
:100148001650D9261750DA227D0EDF6E120020EEE7
:1001580005F01650D9261750DA22070EDF6E120066
:1001680020EE05F01650D9261750DA227F0EDF6EE2
:10017800120020EE05F01650D9261750DA226F0E1D
:10018800DF6E12001850000AD8B4A2D7010AD8B4FA
:10019800A8D7030AD8B4AED7010AD8B4B4D7070A87
:1001A800D8B4BAD7010AD8B4C0D7030AD8B4C6D7C6
:1001B800010AD8B4CCD70F0AD8B4D2D7010AD8A428
:1001C8001200D7D7000E926E000E936E000E946E3A
:1001D800C180C182C184C186000E266E000E276EC2
:1001E80027EC03F0800E166E0F0E176E020E186EB7
:1001F800000E94EC02F0800E166E0F0E176E030EB2
:10020800186E010E94EC02F0800E166E0F0E176E2B
:10021800040E186E020E94EC02F0800E166E0F0E8D
:10022800176E050E186E030E94EC02F06AEC03F0DC
:10023800000E1E6E000E3AEC03F0000E1E6E010E4C
:100248003AEC03F0000E1E6E020E3AEC03F0000EBC
:100258001E6E030E3AEC03F0928092820CD0000ED0
:10026800226E010EE3EC01F01BD0000E226E020E8E
:10027800E3EC01F015D0FDEC02F0010AD8B4EFD799
:10028800030AD8B4F2D70CD0020E226E010EE3ECAA
:1002980001F0F1D7020E226E020EE3EC01F0EBD76B
:1002A800C9EC02F0010AD8B4EFD7030AD8B4F2D7E0
:1002B800E2D7216E3AD020C016F0176A000E196EE8
:1002C8000A0E186E5CEC02F016501E6E000E3AEC28
:1002D80003F020C016F0176A000E196E0A0E186E89
:1002E800A1EC01F016501E6E010E3AEC03F012005C
:1002F80020C016F0176A000E196E0A0E186E5CEC14
:1003080002F016501E6E020E3AEC03F020C016F0F2
:10031800176A000E196E0A0E186EA1EC01F016503D
:100328001E6E030E3AEC03F012002150010AD8B4F5
:10033800C2D7030AD8A41200DBD7000E1B6E19AE71
:1003480006D0186C191ED8B0192A010E1B6E17AEEC
:1003580006D0166C171ED8B0172A010E1B1A000EED
:100368001D6E000E1C6E18501910D8B41CD0010E4A
:100378001A6E04D0D890183619361A2A19AEFAD738
:10038800D8901C361D361850165C19501758D8A02E
:1003980005D01850165E1950175A1C80D89019327B
:1003A80018321A2EEDD71B50D8B404D01C6C1D1E61
:1003B800D8B01D2A1CC016F01DC017F01200236EFD
:1003C80034D0262A12D02650D8B40FD026060DD005
:1003D800000E266E0AD02250000AD8B4F2D7010ABD
:1003E800D8B4F1D7030AD8B4F3D726C020F0010E49
:1003F8005DEC01F01200272A12D02750D8B40FD094
:1004080027060DD0000E276E0AD02250000AD8B455
:10041800F2D7010AD8B4F1D7030AD8B4F3D727C062
:1004280020F0020E5DEC01F012002350010AD8B44E
:10043800D2D7030AD8A41200E8D72850D8B412009B
:1004480028502518D8A403D0000E256E01D0252ADF
:1004580003682550060D030EF326000EF422290E1C
:10046800F324D96E000EF420DA6EDF50016E010E0F
:10047800026E012A02D0D8900236012EFCD7025013
:1004880003162550060D010EF326000EF422290E40
:10049800F324D96E000EF420DA6EDECF01F0DDCF42
:1004A80002F001C0D9FF02C0DAFF03C0DFFF12006B
:1004B800000E1B6E17AE06D0166C171ED8B0172A82
:1004C800010E1B6E19AE04D0186C191ED8B0192A6B
:1004D80018501910D8B418D0010E1A6E04D0D8903C
:1004E800183619361A2A19AEFAD71850165C195048
:1004F8001758D8A004D01850165E1950175AD8901B
:10050800193218321A2EF1D71B50D8B404D0166CF1
:10051800171ED8B0172A16C016F017C017F0120009
:100528001A6E040E28601200000E1B6E0DD01B50B0
:10053800060D290EF324D96E000EF420DA6E1A5037
:10054800DE18D8B412001B2A28501B5CD8A0EFD79D
:1005580028C01CF016C01DF017C01EF018C01FF0F0
:10056800000E206E000E216E20EE1CF02850060DA5
:10057800290EF324E16E000EF420E26E050EDBCFA7
:10058800E3FFE806FCE2282A1200090E266416D0CA
:100598002650166E176A2750186E196A020E18260A
:1005A800000E19221650185C1950800A1A6E17503E
:1005B800800A1A58D8B002D0010E1200090E27641A
:1005C80016D02750166E176A2650186E196A020E32
:1005D8001826000E19221650185C1950800A1A6E37
:1005E8001750800A1A58D8B002D0020E1200000E16
:1005F800120080A008D0000E176E640E166E13EC61
:1006080003F0010E120080A208D0000E176E640ECF
:10061800166E13EC03F0020E1200000E1200000E0C
:100628001A6E000E196E0AD01606D8A01706040E08
:10063800186E3E0EE82EFED7182EFCD7165017104F
:10064800D8B41200F1D7000E286E000E256ED59E84
:10065800D58CD59AD596D550F80B0309D56ED08E82
:10066800F28EF28CF294F194F28A12001F6E2850E6
:100678001F5CD8B012001F50060D290EF324166E09
:10068800000EF420176E1EC018F065EC00F0120082
:1006980021EC02F02550060D050EF326000EF4227B
:1006A800290EF324D96E000EF420DA6EDF50816E25
:1006B800120000EE24F01D0EEE6AE806FDE14190FE
:1006C8004192000EF86E0001E6EF00F0D58E1200A0
:020000040020DA
:08000000FFFFFFFFFFFFFFFF00
:020000040030CA
:0E000000040C1F1EFF8080FF0FC00FE00F409A
:00000001FF
